:1000000000180020C10000003D150000011500008F
:100010000115000001150000011500000115000088
:100020000115000001150000011500003D1500003C
:100030003D15000001150000412300004923000088
:100040003D1500003D1500003D1500003D15000068
:100050003D1500003D1500003D1500003D15000058
:100060003D1500003D1500003D1500003D15000048
:100070003D1500003D1500003D1500003D15000038
:100080003D1500003D1500003D1500003D15000028
:100090003D1500003D1500003D1500003D15000018
:1000A000F91800003D1500003D1500003D15000049
:1000B0003D1500003D1500003D1500003D150000F8
:1000C000F8B501F03FFA0821474A484B1A60484A00
:1000D000484B1A60484A494B1A60494B1A780A4201
:1000E00002D01A780A431A702A22464B46481A70E0
:1000F00000234649464C1A188A4203D2E558043375
:100100001560F8E70021434B434A934201D202C3F2
:10011000FBE70023414A424958589446985004331B
:10012000C02BF9D100210326FF2580248A083D4BEE
:100130009200D2180B002F003340DB009F40106864
:100140000131B84307002000984003003B4313608F
:100150002029EBD16246344B1A608A22334B1A7045
:10016000334B663A5A707C321A709E3A9979114232
:10017000FCD0102299791142FCD10C209A792C499B
:100180000240082AFAD1053A0A713D324A71203AF2
:1001900099791142FCD0402299791142FCD025492D
:1001A000254A11602021224A117014399A790A4097
:1001B0000C2AFBD1214A224B1A60224A224B1A6098
:1001C0000022224B1A60224B07321A60214A224B2E
:1001D0001A6062B601F064FA02F00EFB01F0B8F9A1
:1001E00002F003F9FEE7C046300004F0348004401A
:1001F000823F0000388004400100000F3C80044032
:1002000002D0074000E0074020FDFF1FD802002079
:10021000FC2C0000D80200208009002000F9FF1FFC
:100220000000000000E400E008ED00E0005006409F
:10023000004006400000011044800440C000050555
:10024000048004407FBB000014E000E018E000E000
:1002500010E000E00000202020ED00E0FFFFFFFFA5
:10026000FFFFFFFFFFFFFFFFFFFFFFFFFFFFFFFF9E
:10027000FFFFFFFFFFFFFFFFFFFFFFFFFFFFFFFF8E
:10028000FFFFFFFFFFFFFFFFFFFFFFFFFFFFFFFF7E
:10029000FFFFFFFFFFFFFFFFFFFFFFFFFFFFFFFF6E
:1002A000FFFFFFFFFFFFFFFFFFFFFFFFFFFFFFFF5E
:1002B000FFFFFFFFFFFFFFFFFFFFFFFFFFFFFFFF4E
:1002C000FFFFFFFFFFFFFFFFFFFFFFFFFFFFFFFF3E
:1002D000FFFFFFFFFFFFFFFFFFFFFFFFFFFFFFFF2E
:1002E000FFFFFFFFFFFFFFFFFFFFFFFFFFFFFFFF1E
:1002F000FFFFFFFFFFFFFFFFFFFFFFFFFFFFFFFF0E
:10030000FFFFFFFFFFFFFFFFFFFFFFFFFFFFFFFFFD
:10031000FFFFFFFFFFFFFFFFFFFFFFFFFFFFFFFFED
:10032000FFFFFFFFFFFFFFFFFFFFFFFFFFFFFFFFDD
:10033000FFFFFFFFFFFFFFFFFFFFFFFFFFFFFFFFCD
:10034000FFFFFFFFFFFFFFFFFFFFFFFFFFFFFFFFBD
:10035000FFFFFFFFFFFFFFFFFFFFFFFFFFFFFFFFAD
:10036000FFFFFFFFFFFFFFFFFFFFFFFFFFFFFFFF9D
:10037000FFFFFFFFFFFFFFFFFFFFFFFFFFFFFFFF8D
:10038000FFFFFFFFFFFFFFFFFFFFFFFFFFFFFFFF7D
:10039000FFFFFFFFFFFFFFFFFFFFFFFFFFFFFFFF6D
:1003A000FFFFFFFFFFFFFFFFFFFFFFFFFFFFFFFF5D
:1003B000FFFFFFFFFFFFFFFFFFFFFFFFFFFFFFFF4D
:1003C000FFFFFFFFFFFFFFFFFFFFFFFFFFFFFFFF3D
:1003D000FFFFFFFFFFFFFFFFFFFFFFFFFFFFFFFF2D
:1003E000FFFFFFFFFFFFFFFFFFFFFFFFFFFFFFFF1D
:1003F000FFFFFFFFFFFFFFFFFFFFFFFFFFFFFFFF0D
:10040000FFFFFFFFFFFFFFFFFFFFFFFFDEF9FFFF23
:1004100010B5064C2378002B07D1054B002B02D0DA
:10042000044800E000BF0123237010BDD802002063
:1004300000000000FC2C0000084B10B5002B03D07E
:100440000749084800E000BF07480368002B00D1B7
:1004500010BD064B002BFBD09847F9E700000000C9
:10046000DC020020FC2C0000D8020020000000006C
:1004700070B5040008000D0002F0EDF923680200D9
:1004800029005B682000984770BD10B5FFF7F0FFAA
:1004900010BD10B5002201F071FF10BD70B5002233
:1004A000050001F06BFF0400280001F055FF001962
:1004B00070BDFFFFF0B50024050085B0047000900A
:1004C000E3B2E0B20193002600F0F0FFF7B238008B
:1004D00000F0FEFF2B78009AC3182B70A223DB00DC
:1004E000F318D3181A78824211D018700F4B019963
:1004F0001B680393039A0E4BEA503A00002803D07E
:10050000280000F03FFD02E0280000F069FD013600
:10051000082EDBD1009B013408330093082CCFD187
:10052000012001F0A3F805B0F0BDC046500800203E
:100530005405000070B5151E0CD0074C002901D0E1
:10054000064900E006492000FFF79FFF2900200030
:10055000FFF7A4FF70BDC0462402002078280000E9
:100560007F280000F7B5CFB201900C00782F0ED88D
:10057000CBB20E4A9B009E58002E08D00C4D0D4960
:100580002800FFF782FF31002800FFF787FF0220D5
:1005900001F06CF80022782F03D8E4B2034BA400DA
:1005A000E25800210198FFF7C5FFF7BDA42800001D
:1005B0002402002078280000F0B5050089B01B4B0C
:1005C0000F0003A951CB51C111CB11C1184EAB5D26
:1005D000002F02D05A40019201E013400193002401
:1005E000019B0122234113421BD003AAA300D3582D
:1005F0000022D9B2782904D8FF3213400D4A9B005B
:100600009A5839002800FFF795FF002F04D00123E6
:10061000A340AA5D134303E00122A240AB5D9343D4
:10062000AB550134052CDBD109B0F0BD64280000C6
:1006300051050000A428000070B505000C1E03D071
:100640000A000121FFF7B8FFE2432800D2B20021DF
:10065000FFF7B2FF70BDFFFF07B5017800290AD18F
:10066000054B064A1B6882580193019B9B1A642B19
:1006700001D9FFF7E1FF07BD500800205405000035
:1006800010B50400FFF716FF2000FFF7E5FF10BDCF
:1006900010B508000522032100F0FDFEC0B210BD18
:1006A00010B508000022052100F0F5FEC0B210BD13
:1006B00010B508000422012100F0EDFE013843428C
:1006C0005841C0B210BD10B508000022042100F04E
:1006D000E2FEC0B210BDF7B507000D00009208AAF7
:1006E00012780192DE007419009BE400E418A40063
:1006F0003C19606800F0D5FE602807D1019B002BF3
:1007000004D0606800F0D0FE0300EBE77519009B91
:10071000ED00ED18AD007F19786800F0C5FEFEBD54
:10072000F7B505000E0017001C00E3009B19DB0065
:10073000DB199B00EB18586800F0B3FE602809D164
:1007400000233A000093310023002800FFF7C3FF85
:100750000400EAE7FEBDFFFFF0B585B002930AABE7
:10076000039119781600050000F0F0FB07002F4CEC
:100770002F492000FFF789FE029A3B003100280034
:10078000FFF7CEFF01002000FFF783FE294920007C
:10079000FFF77BFE39002000FFF77BFE2649200093
:1007A000FFF773FE31002000FFF773FE234920009E
:1007B000FFF76BFE02992000FFF76BFE2049200037
:1007C000FFF763FE1F492000FFF75FFE1E4B20006E
:1007D000E95C01F001FE19492000FFF756FE1B4BB2
:1007E0002000E95C01F0F8FD19492000FFF74DFEFB
:1007F000039B029A009331003B00280000F024FC88
:10080000002811D00123029A009331003B002800F8
:10081000FFF761FF0022782802D80E4B8000C258F3
:1008200003992800FFF786FE05B0F0BD24020020E2
:1008300086280000892800008D28000090280000EC
:1008400092280000952800000D0500000A05000010
:1008500097280000A4280000F7B5170005000E0037
:1008600000240B490B48FFF710FE3B003200280024
:1008700001210094FFF770FF022000F0F7FE3B001B
:100880003200280000942100FFF766FFF7BDC04644
:10089000992800002402002010B50400FFF740FF53
:1008A00001002000FFF7F4FE013843425841C0B276
:1008B00010BDFFFF064BC25C064BC254064BC25C28
:1008C000064BC254064BC25C064BC2547047C0462E
:1008D0000A0500000D0500000B0500000E050000D4
:1008E0000C0500000F050000F0B50500002485B0E0
:1008F000039102900026A223029ADB00F318D35C36
:10090000F7B2002B07D0210000233A002800FFF7A0
:10091000C3FF011E0BD00136082EECD1029B01341F
:100920000833E4B20293082CE4D105B0F0BDAB2348
:10093000DB00E854039B2200009328003B00FFF7F4
:100940000BFF0123039A01215340009322003B0037
:100950002800FFF701FFDEE7154B00229C46F0B5AB
:1009600085B00021D301019393000393019B114CA7
:100970005B185B00029300236718029D5C00FE5C1D
:100980006419039D0419AE19FD186D7836017519A7
:100990006646AD00AD5902336560102BEDD11031C4
:1009A0008029E3D10132052ADBD105B0F0BDC04674
:1009B00020FDFF1F882A000070B5012105001720C7
:1009C00000F0FAFD0121162000F0F6FD01211520AE
:1009D00000F0F2FD0121112000F0EEFD01211220B6
:1009E00000F0EAFD0121132000F0E6FD00211420B3
:1009F00000F0E2FDFA20C00000F038FE054C064988
:100A00002000FFF735FD200001F0A6FC2800FFF7CD
:100A1000A3FF70BD240200209D28000070B5252191
:100A2000212000F035FDB64C3121A060412000F0BE
:100A30002FFD2721E060222000F02AFD7921A0640B
:100A4000442000F025FD2300D03318602821202009
:100A500000F01EFD2300D43318601C21482000F054
:100A600017FD2300F433186000216020250000F0FA
:100A70000FFDFC35E8603221412000F009FD7821AE
:100A80002861412000F004FD2121A861412000F0EF
:100A9000FFFC22216863412000F0FAFC0021A863DA
:100AA000602000F0F5FC0421E864482000F0F0FC30
:100AB0002B21A865482000F0EBFC2C21686748201A
:100AC00000F0E6FC2721A867412000F0E1FCC423E8
:100AD0005B00E0501B21412000F0DAFCC6235B00E4
:100AE000E0502F21482000F0D3FCD8235B00E050D9
:100AF0002D21482000F0CCFCDA235B00E0502721B8
:100B0000422000F0C5FCE4235B00E0502721502088
:100B100000F0BEFCE6235B00E0502721442000F0FB
:100B2000B7FCE8235B00E0500021602000F0B0FC3F
:100B3000EA235B00E0500021602000F0A9FCEC23D8
:100B40005B00E0500021602000F0A2FCEE235B007F
:100B5000E0501C21482000F09BFCFA235B00E05091
:100B60000021602000F094FC82239B00E0500021D3
:100B7000602000F08DFC8D239B00E0500021602060
:100B800000F086FC92239B00E0503321612000F0AE
:100B90007FFC9D239B00E0500021602000F078FC4A
:100BA000A2239B00E0500021602000F071FCB223E2
:100BB0009B00E0500021602000F06AFCB3239B0002
:100BC000E0500021602000F063FCB4239B00E05063
:100BD0000021602000F05CFCB5239B00E050022166
:100BE000102000F055FCB6239B00E050002160204F
:100BF00000F04EFCB7239B00E0500021602000F085
:100C000047FCC2239B00E0500121102000F040FC73
:100C1000C3239B00E0500021602000F039FCD22368
:100C20009B00E0500021602000F032FCE2239B009A
:100C3000E0500021602000F02BFCF2239B00E050EC
:100C40000021602000F024FCF3239B00E0500021F1
:100C5000602000F01DFCF4239B00E0500021602088
:100C600000F016FCF5239B00E0500021602000F00E
:100C70000FFCF6239B00E0500021602000F008FCF0
:100C8000F7239B00E0500021602000F001FC81234D
:100C9000DB00E0500021602000F0FAFB8923DB003C
:100CA000E0500021602000F0F3FB9123DB00E050D6
:100CB0000021602000F0ECFB9923DB00E0500021D4
:100CC000602000F0E5FB0F4B0021E050602000F0B9
:100CD000DFFB9A23DB00E0500021602000F0D8FB0E
:100CE000094B0021E050602000F0D2FB9B23DB0089
:100CF000E0500021602000F0CBFB044BE05070BDC1
:100D000020FDFF1FCC040000D4040000DC04000020
:100D100010B5040001291FD0002909D002292ED1C5
:100D20000521174801F0EEF9164801F015FB26E001
:100D30004F21FFF717FC20004F21FFF713FC200085
:100D40004B21FFF70FFC20004B21FFF70BFC4C2140
:100D50002000FFF707FC12E04821FFF703FC4121C8
:100D60002000FFF769FC31212000FFF7FBFB242165
:100D70002000FFF7F7FB00212000FFF75DFC10BD0E
:100D8000082B00002402002010B52521212000F0AE
:100D90007FFB3121412000F07BFB2721222000F046
:100DA00077FB7921442000F073FB2821202000F0FC
:100DB0006FFB1C21482000F06BFB0021602000F03D
:100DC00067FB3221412000F063FB7821412000F0D5
:100DD0005FFB2121412000F05BFB2221412000F03C
:100DE00057FB0021602000F053FB0421482000F055
:100DF0004FFB2B21482000F04BFB2C21482000F01A
:100E000047FB2721412000F043FB1B21412000F03C
:100E10003FFB2F21482000F03BFB2D21482000F014
:100E200037FB2721422000F033FB2721502000F020
:100E30002FFB2721442000F02BFB0021602000F035
:100E400027FB0021602000F023FB0021602000F040
:100E50001FFB1C21482000F01BFB0021602000F03C
:100E600017FB0021602000F013FB0021602000F040
:100E70000FFB3321612000F00BFB0021602000F00C
:100E800007FB0021602000F003FB0021602000F040
:100E9000FFFA0021602000F0FBFA0021602000F042
:100EA000F7FA0221102000F0F3FA0021602000F090
:100EB000EFFA0021602000F0EBFA0121102000F091
:100EC000E7FA0021602000F0E3FA0021602000F042
:100ED000DFFA0021602000F0DBFA0021602000F042
:100EE000D7FA0021602000F0D3FA0021602000F042
:100EF000CFFA0021602000F0CBFA0021602000F042
:100F0000C7FA0021602000F0C3FA0021602000F041
:100F1000BFFA0021602000F0BBFA0021602000F041
:100F2000B7FA0021602000F0B3FA0021602000F041
:100F3000AFFA0021602000F0ABFA0021602000F041
:100F4000A7FA0021602000F0A3FA10BD002903D009
:100F50000A4B0A4AC31802E0094B094AC318815CCC
:100F60005A789B78002904D00420002A05D1023841
:100F700003E00320002A00D1180070470D0500008F
:100F80000A05000073B5002304000D001600FFF7EA
:100F900083FC002817D02000FFF78CFC00233200D0
:100FA00029002000FFF7BCFB01002000FFF78BFBAE
:100FB00001210A4B2018C0184E330170E154200063
:100FC000FFF792FC09E0AB23DB00E0540090330014
:100FD0002A0001212000FFF7BFFB73BD0A050000B6
:100FE00073B500230D0004001600FFF755FC011E29
:100FF00020D000212000FFF777FC2000FFF75AFCEB
:101000000023320029002000FFF78AFB01002000A6
:10101000FFF759FB00220B4B2018C01802704E330B
:10102000E15C91420CD0E254290032002000FFF72D
:1010300013FC05E0009033002A002000FFF78CFB32
:1010400073BDC0460A050000F0B51E0087B00CABAA
:101050001B7804000593330004920391FFF760FBB3
:10106000010005002000FFF713FB07002900200006
:10107000FFF716FBBB1EDBB20100012B03D82000DB
:10108000FFF7DAFA01E0012F01D901201AE0290067
:101090002000FFF70DFB0125011E0FD0059B002B43
:1010A000F3D13300049A039900952000FFF713FB56
:1010B00001002000FFF72CFE059803E02000FFF759
:1010C000BBFA280007B0F0BD10B52521212000F0A3
:1010D000DFF93121412000F0DBF92721222000F047
:1010E000D7F97921442000F0D3F92821202000F0FD
:1010F000CFF91C21482000F0CBF90021602000F03E
:10110000C7F93221412000F0C3F97821412000F0D5
:10111000BFF92121412000F0BBF92221412000F03C
:10112000B7F90021602000F0B3F90421482000F055
:10113000AFF92B21482000F0ABF92C21482000F01A
:10114000A7F92721412000F0A3F91B21412000F03D
:101150009FF92F21482000F09BF92D21482000F015
:1011600097F92721422000F093F92721502000F021
:101170008FF92721442000F08BF90021602000F036
:1011800087F90021602000F083F90021602000F041
:101190007FF91C21482000F07BF90021602000F03D
:1011A00077F90021602000F073F90021602000F041
:1011B0006FF93321612000F06BF90021602000F00D
:1011C00067F90021602000F063F90021602000F041
:1011D0005FF90021602000F05BF90021602000F041
:1011E00057F90221102000F053F90021602000F08F
:1011F0004FF90021602000F04BF90121102000F090
:1012000047F90021602000F043F90021602000F040
:101210003FF90021602000F03BF90021602000F040
:1012200037F90021602000F033F90021602000F040
:101230002FF90021602000F02BF90021602000F040
:1012400027F90021602000F023F90021602000F040
:101250001FF90021602000F01BF90021602000F040
:1012600017F90021602000F013F90021602000F040
:101270000FF90021602000F00BF90021602000F040
:1012800007F90021602000F003F910BD10B50248F5
:10129000FFF792FB10BDC046F402002010B50248D3
:1012A000FFF7EEF910BDC046F402002010B525216D
:1012B000212000F0EDF83121412000F0E9F827214C
:1012C000222000F0E5F87921442000F0E1F82821FF
:1012D000202000F0DDF81C21482000F0D9F8002182
:1012E000602000F0D5F83221412000F0D1F87821BB
:1012F000412000F0CDF82121412000F0C9F8222141
:10130000412000F0C5F80021602000F0C1F8042160
:10131000482000F0BDF82B21482000F0B9F82C211E
:10132000482000F0B5F82721412000F0B1F81B213A
:10133000412000F0ADF82F21482000F0A9F82D2120
:10134000482000F0A5F82721422000F0A1F827212D
:10135000502000F09DF82721442000F099F800214A
:10136000602000F095F80021602000F091F8002145
:10137000602000F08DF81C21482000F089F8002141
:10138000602000F085F80021602000F081F8002145
:10139000602000F07DF83321612000F079F8002111
:1013A000602000F075F80021602000F071F8002145
:1013B000602000F06DF80021602000F069F8002145
:1013C000602000F065F80221102000F061F8002193
:1013D000602000F05DF80021602000F059F8012144
:1013E000102000F055F80021602000F051F8002195
:1013F000602000F04DF80021602000F049F8002145
:10140000602000F045F80021602000F041F8002144
:10141000602000F03DF80021602000F039F8002144
:10142000602000F035F80021602000F031F8002144
:10143000602000F02DF80021602000F029F8002144
:10144000602000F025F80021602000F021F8002144
:10145000602000F01DF80021602000F019F8002144
:10146000602000F015F80021602000F011F8002243
:10147000044B05491A705A5404495A5004315A54BD
:1014800010BDC046F40200205105000054050000C4
:1014900000024018704701238B40D040013B1840A8
:1014A0007047000AC0B27047C0B27047012110B542
:1014B00004000140172000F04DF8A107C90F1620C5
:1014C00000F048F86107C90F152000F043F810BD7F
:1014D000012110B504000140112000F03BF8A107E4
:1014E000C90F122000F036F86107C90F132000F071
:1014F00031F8142000F04EF8431E9841C0B210BDE0
:1015000070B580258026ED02F6000B4C23682B4237
:1015100001D000F0F1F92368334201D000F00EF859
:1015200023681B0501D500F009F82368DB04ECD51E
:1015300000F004F8E9E7C0463480044010B5FFF736
:10154000DFFFFFFF0022014B1A607047008104405B
:101550007047FFFF10B51A2818D80C2358430C4ABF
:10156000835810181C7D027A224205D0002901D030
:101570001A710BE01A7209E043681A68002902D058
:1015800003210A4301E002218A431A6010BDC046CC
:10159000102B000000231A280AD80C335843054AA0
:1015A00083581018007A1B7C0340581E8341DBB21D
:1015B00018007047102B0000F0B51A282FD80C2205
:1015C00017004743164CE5196B682600012901D026
:1015D000042911D1504334583018257D027A202037
:1015E0002A432275A22252001A601A68042901D1E6
:1015F000024313E0824311E038592C7A027DA24362
:1016000002758022002908D0022902D10422FF326B
:1016100004E00022032901D1812252001A60F0BDAA
:10162000102B000072B60C4B1A680C4B18680C4B50
:101630001B6862B65B0104D5322393429B415B4237
:10164000C018084B9A1A084B5A43FA239B00584378
:10165000920D10187047C04618E000E050080020B6
:1016600004ED00E07FBB00005555010070B504009B
:10167000FFF7D8FF0500002C0FD0FFF7D3FF074B73
:10168000401B984206D9013C002C06D0FA239B004F
:10169000ED18F2E700F0D4FEEFE770BDE7030000BD
:1016A00080221E4BD20510B51A608022002012063F
:1016B0001A601B4B1B4918601B4B1C4A19602823DE
:1016C00013601B4A1B4C13601B4A13601B4A1360B8
:1016D0001B4A13601B4A1360092222601A4C2060C7
:1016E0001A4C21601A4C23601A4C23601A4C226059
:1016F0001A4C20601A4801601A490B601A490B60A5
:101700001A4B1A6000F00CFF1920FFF7AFFF00F032
:10171000E9FB1420FF30FFF7A9FF10BD00E100E056
:1017200004800340FFBF0000088003400C8003409A
:1017300014800340008003401C8003402480034049
:101740002C80034034800340049003400890034001
:101750000C900340149003400090034004A0034009
:1017600008A003400CA0034014A0034000A00340C5
:101770000223F0B50A4A0B4E1478C8272343DB0036
:10178000F518686008480578002D00D1403F09042D
:101790000F43F75001235D405C4005701470F0BDAD
:1017A000BC08002000F8FF1F34090020431E10B5BC
:1017B0000020032B0ED872B6074A990088580028DB
:1017C00007D044685B008C50044904885A5A121BA5
:1017D0005A5262B610BDC046AC0800206A0900200B
:1017E000431E0020032B09D872B6054A9B009B5864
:1017F000002B02D001305B68FAE762B67047C04642
:1018000000090020F8B572B60123174A082594464E
:101810001E00164964465A1EA25C2A421AD05F0175
:101820007C589A00002C05D1CB1908305860104B19
:10183000CB5109E03243D2005458002C0AD18B1806
:10184000083058600B4B8B500B4A1378013B1370D8
:1018500062B608E00133052BDCD162B60022064BEC
:101860001A7000F0B5FBF8BD802C000000F8FF1FD7
:1018700088004000C80040002A090020421E10B520
:10188000032A30D8022380001843174BC0001B18CE
:1018900072B6164CA05C03280BD800F0EFFE1604BD
:1018A0000207052012E0083302200FE0083304206D
:1018B0000CE00F48920014580E4B002C01D111502F
:1018C00001E09858416099500CE00320A0540A00B0
:1018D00008325A60C822180700D4403A098809041F
:1018E0000A431A6062B610BD00F8FF1F68080020A6
:1018F0000009002010090020F7B5B94B1C781D0025
:101900000423E4B21C421DD0B64B1B78002B16D02A
:10191000B54A1378DBB2002B05D0013BDBB2137064
:10192000002B00D100BEB14A1378DBB2002B06D0E9
:10193000013BDBB21370002B01D100F0B1FC04229B
:10194000A74B1A700822224000D161E2A84BA94F90
:101950001B78DBB29C08E4001D093C19002D00D067
:10196000E7E1236862689806000F01380C2800D967
:10197000DBE100F08DFE9C019C01DA01DA01DA0165
:10198000DA01DA01DA01B701DA01DA01DA010D0070
:101990001168536800229848984E026001207360D5
:1019A000974B31602360974C89B22070964C3A6116
:1019B000BA610193A14218D8D023DB00994200D329
:1019C000E7E081235B00994200D1C4E006D880297A
:1019D00000D1A9E0822900D1ABE0FAE08B4B99421B
:1019E00000D1C7E0FF33FF331AE0894B994200D1A1
:1019F0005AE110D888231B01994200D18EE0803330
:101A0000994200D0E5E03C003D00B278754B2034AF
:101A10001A70A03508E07F4B994200D1CEE07E4B92
:101A2000994200D1D9E0D4E080222368134203D048
:101A30006068083800F0CCFA0834AC42F4D10024D5
:101A40002500764BE058002805D04368009300F04D
:101A5000BFFA0098F7E7714B1851714BE050714B8A
:101A6000E058002805D04368009300F0B1FA0098D0
:101A7000F7E76C4B6C4A18516C4BE0506B00D0523E
:101A80006B4BE85C0238032807D800F0F7FD02042E
:101A90000204002200E001225A5501350434042DCD
:101AA000CFD100230124634D2B70634B6349621E29
:101AB000E3188A5C9B001A7008231A4220D000F0B9
:101AC00069FA6301002805D0FA18083050605C4AB2
:101AD000FA5003E0F8502B7801332B7000F05AFADB
:101AE0000122A3001343DB00002805D0FA180830B8
:101AF0005060019AFA5003E0F8502B789B182B7035
:101B000002210023A2001143C9007B5003210A4394
:101B10008A400134BB50052CC7D1A0E0314B494C61
:101B20001B78237003009BE0464C022322706270F6
:101B300096E07F23B1880B40042B4AD8414C9B0090
:101B400022706270404A9B181A7802231A4200D110
:101B500086E0207084E07F23B2881A40042A38D8B7
:101B60007388002B35D10220374992005218117822
:101B700081432CE07F23B2881A40042A29D8738835
:101B8000002B26D1022030499200521811780143CF
:101B90001DE07288B1882D4B5C68002C19D0188824
:101BA000904209D15888884206D1120A032A01D1ED
:101BB000237855E01B8953E00C33EDE7B388002B05
:101BC0004CD1234A1168234A1160B178224A11701E
:101BD00045E00F221C4B1A7066E000233FE0C04630
:101BE0008020074033090020BD080020350900206F
:101BF0009020074000F8FF1F540800202009002013
:101C0000C8004000340900208106000002030000E3
:101C1000212000002122000021230000AC08002028
:101C200058080020000900206A090020100900203F
:101C3000680800202A09002030C80110802C00000C
:101C4000880040002B090020C0200740842C0000A1
:101C5000500800207C0900204409002013001C00CB
:101C6000F5889D4200D91D002E00402D00D9402648
:101C700020003100FFF77CFDA419AD1B03D12F001C
:101C8000402E04D010E04027AF4200D92F002000A2
:101C90003900FFF76DFDE419ED1B01D1402F03D191
:101CA000774B1C60774B1D800122774B3CE0774BD4
:101CB00077491888884212D19B88002B0BD175492F
:101CC000D05CC8540133072BFAD10B68862B02D1A4
:101CD0000F22714B1A7000210800FFF749FD6F4B6E
:101CE000236022E0664F3E68002E13D0654B1C88AF
:101CF0002500402C00D9402529003000FFF738FD91
:101D0000641B604BA4B21C80002C01D1402D00D17B
:101D100074193C60A0225D4BD2001988914204D115
:101D200000225A709A785E4B1A700122564B1A7034
:101D30006AE008226068013D0838EDB2134037D0F0
:101D400000F046F95749A8004258574B002A1CD0CA
:101D5000566846501100585D0831616003280BD861
:101D600000F08CFC02040608032104E0022102E0DA
:101D7000052100E0042159550821C8230C4200D157
:101D8000403B1288120413433DE0585D032808D8F5
:101D900000F074FC3A3A0204002200E001225A5595
:101DA00032E008221440621E944102345C552BE05C
:101DB0002268110C8AB2028000291ED03B49438060
:101DC0004360AB005F583A4E002F01D1585001E0FC
:101DD000F158486037496D00F0506B5AD2186A527A
:101DE00000F0D8F8002802D00830606005E0324AE0
:101DF000206013780133137006E008231C4201D1E0
:101E00002E4B00E0254B236008222D4B1A7074E501
:101E1000012004421ED002231B49284C0B70294B81
:101E2000294E1A70294B1C609C60294C1A61DC6099
:101E30000D249A615E60274B1C70FF23264C237093
:101E4000174C2B702270254A13709F22244B1A7056
:101E5000087013E063B2002B04DA0D221D4B1A70D8
:101E600080232B700222144204D01B490B78DBB272
:101E70000B702A7010231C4200D02B70F7BDC04697
:101E80005408002028090020942007402009002041
:101E90002120000074090020BD080020C800400077
:101EA000982007400009002068080020AC080020A6
:101EB000580800206A0900202A09002088004000F4
:101EC00080200740BC0800206C08002000F8FF1F9D
:101ED000C0080020C0200740882007408C20074011
:101EE0008420074010B500F08BFB002211001B4B33
:101EF000D150981808324160A02AF9D180201849A1
:101F0000C0020A6802430A601A0A1649D2B20A706D
:101F10001A0C1549D2B20A70144A1B0E1370FF2313
:101F2000134A00201370134A13491370134A137095
:101F300001220A701249087012490A70124A116887
:101F400099430B0070210B43136080220F4B520406
:101F50001A6010220E4B1A7010BDC04600F8FF1F09
:101F6000348004409C200740B0200740B420074044
:101F70008020074088200740942007401020074019
:101F8000002107408420074018E400E000E100E061
:101F90000821074070B572B60B4D2C68200000F088
:101FA0000DFC0B2802DD62B600200CE080231B062E
:101FB000C3409C432C6062B648235843034B181817
:101FC00000230360436070BD20020020C0F9FF1FA2
:101FD00010B504000E484821201A00F063FB0B28BE
:101FE00014D80C4B1B78002B07D00B4B1B78002B05
:101FF00003D02000FFF706FC08E072B680231B0622
:10200000C340064A11680B43136062B610BDC04658
:10201000C0F9FF1F2A0900203309002020020020F8
:1020200070B5114D2B68002B0CD0286843885A1CC2
:10203000C3181C7A03889A4212D3FFF7C9FF002302
:102040002B600EE0094B1B78002B02D1012040428F
:1020500008E00320FFF7AAFB28600028E5D1F5E798
:102060004280200070BDC046400900203309002096
:1020700010B50D4C2368002B03D02268002A0ED126
:1020800003E00A4B1B78002B02D10120404209E0FB
:102090000320FFF78BFB20600028EED1F5E7538883
:1020A000D318187A10BDC04640090020330900201B
:1020B000054B9888054B1A68002A03D0138852886C
:1020C0009B1AC0187047C0466A09002040090020CA
:1020D00010B50A4B1B78002B0FD0094C2068002844
:1020E00003D0FFF775FF002323600320FFF75EFB9B
:1020F000002802D0FFF76CFFF7E710BD330900207E
:1021000040090020314A0123F0B50C00170085B0CA
:102110000190029113700393002C53D02C4D2B6827
:10212000002B25D12B4E2C4B1B78DBB2002B01D181
:102130003B7017E00420FFF753FB072809D86B46D4
:102140001B7B3B70FFF726FF214B186000280FD147
:102150003870013E214B002E02D01A78002A04D09C
:1021600001221A70012040422EE000F069F9DAE7FE
:1021700000221A4B29681A7040234A88981A2300B3
:10218000844200D90300080008308018D2184A8021
:102190000022E41A934204D0019EB65C86540132B8
:1021A000F8E7019AD31801934B883F2B06D94023B7
:1021B00004200B80FFF762FB00232B600522084BF5
:1021C0001A70A9E702983C7005B0F0BD36090020EE
:1021D0003809002009750000330900203C0900205F
:1021E0003509002007B56B46D87107330121180067
:1021F000FFF788FF0EBDFFFF012370B50E4C0F4D9A
:1022000023702B68002B10D10D4B1B78002B02D1B3
:10221000002020700FE00420FFF7E2FA0728F7D82B
:10222000FFF7B8FE28600028F2D02B6858884023BA
:10223000181A0023237070BD3609002038090020C9
:1022400033090020F7B5124B1B78002B1FD0012655
:10225000104F114B3C681E700193104D002C09D09B
:1022600000262E706388210023800420FFF706FBE0
:102270003E6009E0FFF78EFE011E04D004202C70A2
:10228000FFF7FCFA00E02E700023019A1370F7BDEF
:1022900033090020380900203609002035090020C4
:1022A00070B50E4B1C78E4B2002C15D10C4D29688A
:1022B000002906D04B8804200B80FFF7DFFA2C6042
:1022C0000AE0FFF767FE011E03D00420FFF7D6FAED
:1022D00002E00122034B1A7070BDC046360900208F
:1022E0003809002035090020EFF3108072B6434210
:1022F0005841C0B27047002800D062B67047FFFF57
:1023000010B5FFF7F1FF0C4A1468002C10D0636978
:102310001360002B02D000229A6101E0074A13608B
:10232000FFF7E9FF002320006377A3689847E8E7F9
:10233000FFF7E1FF10BDC046480900204C0900200E
:1023400010B5FFF7DDFF10BD024A136801331360BB
:102350007047C0465008002037B5022504002A0007
:10236000054901A800F06EFA23682A005B6801A9FC
:10237000200098473EBDC046542C0000F0B50D002B
:102380000F2185B09446134A6944ACB22F0C5743D1
:1023900001345443BBB2260C1C19A4193B0C240C69
:1023A000DB19E3180A245B085C432D1B3035013927
:1023B0000D701D1EE9D16346002B02D02D2301397B
:1023C0000B70CA4304ABD21803685B68984705B02A
:1023D000F0BDC04633330000002210B5914201DA4F
:1023E00049422D32FFF7CAFF10BD10B5FEF74EFF70
:1023F000FEF754FF00F024F8FAE710B5FFF768FE87
:1024000010BD10B5FFF734FE10BD10B5FFF708FE84
:1024100010BD10B5FFF74CFE10BD10B5FFF712FF51
:1024200010BD10B5FFF7E8FE10BD10B50800110093
:10243000FFF768FE10BD10B50800FFF7D3FE10BD12
:10244000F8B52F4C2278002A58D02E4E3378002B26
:1024500054D1013333701A420DD0FFF729FE002802
:1024600001D000F009F9284B1B78002B03D0012282
:1024700023789343237023789B0712D50025234BA1
:102480001B78AB420DD9224BAA00D7583B683800C5
:102490001B699847002801D03B6998470135EDB288
:1024A000EDE70023337023785B0727D519490B68C4
:1024B000002B23D0EFF30583002B1FD1EFF3108205
:1024C00072B60868002803D0134C2578002D03D07D
:1024D000002A13D162B611E00123237043690B6017
:1024E000002B01D09D6101E00C490B60002A00D156
:1024F00062B600258368457798472570F8BDC046C9
:102500003402002059090020D6020020680900206A
:102510005C090020540900205809002050090020BF
:102520001B4B1C4A19781C4B082901D1002102E0E1
:102530000A2903D12E311160132206E00C2901D1A2
:10254000283100E03C21116012221A60134B1A78E6
:10255000134B002A01D0002200E001221A60114B27
:102560001A78114B012A01D880220CE0042A01D8E4
:10257000842208E0082A01D8852204E0102A01D824
:10258000862200E087221A600122084B1A707047E9
:102590003502002008B003400CB003405B09002066
:1025A00020B003403602002024B003405A09002026
:1025B000F8B506000D00170000243900300000F0C7
:1025C000F7F80B003733DBB2092901D83031CBB231
:1025D00030002B55390000F065F8061E01D001349B
:1025E000EBE72B1958702B005A1B944206DD1A7822
:1025F000295D19702A550133013CF5E72800F8BD23
:1026000030B585B072B670224121154B1A70154A4B
:102610001170154A3239117080221A701A7852B22C
:10262000002AFBDA114B186862B6114B984201D8A8
:102630000A23584301AC0A222100FFF7B9FF002307
:102640000C48E15C0500002905D05A0082180133CE
:1026500051800A2BF5D101335B002B7005B030BDE2
:10266000000002400700024006000240080002404D
:102670007F969800C00200207047FFFF02B47146A9
:1026800049084900095C49008E4402BC7047C046B5
:1026900003B47146490840004900095A49008E4474
:1026A00003BC7047002243088B4274D303098B425A
:1026B0005FD3030A8B4244D3030B8B4228D3030C12
:1026C0008B420DD3FF22090212BA030C8B4202D3B4
:1026D0001212090265D0030B8B4219D300E0090ADC
:1026E000C30B8B4201D3CB03C01A5241830B8B42E5
:1026F00001D38B03C01A5241430B8B4201D34B03CE
:10270000C01A5241030B8B4201D30B03C01A524132
:10271000C30A8B4201D3CB02C01A5241830A8B42B7
:1027200001D38B02C01A5241430A8B4201D34B02A0
:10273000C01A5241030A8B4201D30B02C01A524104
:10274000CDD2C3098B4201D3CB01C01A52418309B8
:102750008B4201D38B01C01A524143098B4201D3F2
:102760004B01C01A524103098B4201D30B01C01A1D
:102770005241C3088B4201D3CB00C01A5241830897
:102780008B4201D38B00C01A524143088B4201D3C4
:102790004B00C01A5241411A00D201465241104624
:1027A0007047FFE701B5002000F006F802BDC04603
:1027B0000029F7D076E770477047C0461C210123F7
:1027C0001B04984201D3000C10391B0A984201D314
:1027D000000A08391B09984201D30009043902A2F2
:1027E000105C40187047C046040302020101010159
:1027F00000000000000000000E4B70B500251E0018
:102800000D4CE41AA410A54204D0AB00F35898472D
:102810000135F8E700F060FA084B00251E00084C6F
:10282000E41AA410A54204D0AB00F3589847013530
:10283000F8E770BDE42C0000E42C0000E42C00005C
:10284000F82C0000002310B59A4203D0CC5CC4548D
:102850000133F9E710BD0023C25C0133002AFBD12C
:10286000581E7047610000005F0000006300000018
:102870006400000065000000507265737320005210
:10288000656C656120006D3A00204C3A00202800FC
:102890002C002920005B005D0023232300424547D4
:1028A000494E00FF04F0000005F0000006F00000B3
:1028B00007F0000008F0000009F000000AF0000036
:1028C0000BF000000CF000000DF000000EF0000016
:1028D0000FF0000010F0000011F0000012F00000F6
:1028E00013F0000014F0000015F0000016F00000D6
:1028F00017F0000018F0000019F000001AF00000B6
:102900001BF000001CF000001DF000001EF0000095
:102910001FF0000020F0000021F0000022F0000075
:1029200023F0000024F0000025F0000026F0000055
:1029300027F0000028F0000029F000002AF0000035
:102940002BF000002CF000002DF000002EF0000015
:102950002FF0000030F0000031F0000033F00000F4
:1029600034F0000035F0000036F0000037F00000D1
:1029700038F0000039F000003AF000003BF00000B1
:102980003CF000003DF000003EF000003FF0000091
:1029900040F0000041F0000042F0000043F0000071
:1029A00044F0000045F0000046F0000047F0000051
:1029B00048F0000049F000004AF000004BF0000031
:1029C0004CF000004DF000004EF000004FF0000011
:1029D00050F0000051F0000052F0000053F00000F1
:1029E00054F0000055F0000056F0000057F00000D1
:1029F00058F0000059F000005AF000005BF00000B1
:102A00005CF000005DF000005EF000005FF0000090
:102A100060F0000061F0000062F0000063F0000070
:102A200001E0000010E0000002E0000020E00000F3
:102A300004E0000040E0000008E0000080E000004A
:102A4000B0E40000B1E40000B2E40000B7E400002C
:102A5000B4E40000B3E40000B6E40000B5E4000014
:102A6000EAE40000E9E40000CDE40000CEE4000068
:102A7000E2E40000B8E4000081E2000082E200002D
:102A800083E2000064F00000000F010F020F030F4B
:102A9000030E020E010E000E0007010702070307D6
:102AA000030D020D010D000D0006010602060306CE
:102AB000030C020C010C000C0005010502050305C6
:102AC000030B020B010B000B0004010402040304BE
:102AD000030A020A010A000A0003010302030303B6
:102AE00003090209010900090002010202020302AE
:102AF00003080208010800080001010102010301A6
:102B000003000200010000006D6F75734500FFFFB8
:102B1000420000F840A0044001000000420000F81C
:102B200044A0044002000000C00000F800C00440BF
:102B300001000000000000F80490044002000000C2
:102B4000000000F80890044004000000C00000F8F5
:102B50001CC0044080000000C00000F810C0044009
:102B600010000000C00000F808C00440040000008D
:102B7000C00000F80CC0044008000000800000F80D
:102B80000CB0044008000000800000F810B00440C1
:102B900010000000800000F818B004404000000061
:102BA000800000F81CB0044080000000800000F8A5
:102BB00014B0044020000000C00000F804C004402D
:102BC00002000000800000F800B004400100000096
:102BD000400000F800A0044001000000400000F8A0
:102BE00004A0044002000000400000F80CA00440D3
:102BF00008000000400000F808A0044004000000A5
:102C0000C00000F814C0044020000000C00000F81C
:102C100018C0044040000000800000F804B00440E8
:102C200002000000800000F808B00440040000002A
:102C3000020100F850D0044010000000020100F82A
:102C400054D0044020000000030100F878D0044074
:102C5000400000000D0AFFFF00000000000000001F
:102C6000372400002B240000232400001B24000034
:102C7000132400000B24000003240000FB230000A9
:102C80000015191500010000370200201200000095
:102C90000002000062020020430000000003000068
:102CA000BC02002000000000010309044A020020C9
:102CB0000000000002030904A6020020000000003A
:102CC00003030904C002002000000000000000000F
:102CD0000000000000000000F8B5C046F8BC08BCC9
:102CE0009E467047390400001D0A0000890D00004F
:082CF000C9100000AD12000044
:042CF800F8B5C04625
:102CFC0000000000000000000000000000000000C8
:102D0C0031000000320000000F000000180000002D
:102D1C000500000006000000020000001100000089
:102D2C000B00000026000000000000000000000066
:102D3C000000000000000000000000000000000087
:102D4C000E00000004000000140000000800000049
:102D5C000300000007000000130000000D0000003D
:102D6C001200000024000000000000000000000021
:102D7C0000000000000000006100000029000000BD
:102D8C0010000000090000000A00000017000000FD
:102D9C00010000000C0000001600000015000000EF
:102DAC00190000004F0000000000000000000000AF
:102DBC0000000000000000005F0000006500000043
:102DCC00000000000000000028000000640000006B
:102DDC007900000079000000790000007900000003
:102DEC004700000000000000000000000000000090
:102DFC0000000000000000000000000000000000C7
:102E0C0078000000000000000F0000001800000017
:102E1C0005000000060000002D000000110000005D
:102E2C000000000000000000000000000000000096
:102E3C000000000000000000000000003400000052
:102E4C004E0000000000000014000000080000000C
:102E5C000300000007000000130000002E0000001B
:102E6C000000000000000000000000000000000056
:102E7C000000000000000000000000000000000046
:102E8C0010000000090000000A00000017000000FC
:102E9C00010000000C0000001600000015000000EE
:102EAC000000000000000000000000000000000016
:102EBC000000000000000000000000000000000006
:102ECC0000000000000000000000000000000000F6
:102EDC007900000079000000790000007900000002
:102EEC00470000000000000000000000000000008F
:102EFC0000000000000000000000000023000000A3
:102F0C001A0000001B0000001C0000001D00000047
:102F1C001E0000001F000000200000002100000027
:102F2C002200000000000000000000000000000073
:102F3C00000000000000000000000000290000005C
:102F4C002A0000002B0000002C0000002D000000C7
:102F5C002E0000002F0000003000000031000000A7
:102F6C003200000000000000000000000000000023
:102F7C000000000000000000000000003300000012
:102F8C007900000079000000790000007900000051
:102F9C007900000079000000790000004500000075
:102FAC004D00000048000000000000000000000080
:102FBC000000000000000000000000000000000005
:102FCC0000000000000000000000000000000000F5
:102FDC007900000079000000790000004B0000002F
:102FEC004C0000004A00000000000000000000003F
:102FFC0000000000000000000000000000000000C5
:10300C001A0000001B0000001C0000001D00000046
:10301C001E0000001F000000000000003500000032
:10302C003600000037000000000000000000000027
:10303C00000000000000000000000000290000005B
:10304C002A0000002B0000002C0000002D000000C6
:10305C002E0000002F0000000000000038000000CF
:10306C00390000003A0000000000000000000000E1
:10307C000000000000000000000000003300000011
:10308C007900000079000000790000007900000050
:10309C007900000079000000000000003B000000F7
:1030AC003C0000003D00000000000000000000009B
:1030BC000000000000000000000000000000000004
:1030CC0000000000000000000000000000000000F4
:1030DC007900000079000000000000003E000000B4
:1030EC003F00000040000000000000000000000055
:1030FC0000000000000000000000000023000000A1
:10310C001A0000001B0000001C0000001D00000045
:10311C001E0000001F000000520000004F000000C5
:10312C0050000000510000000000000000000000F2
:10313C00000000000000000000000000290000005A
:10314C002A0000002B0000002C0000002D000000C5
:10315C002E0000002F000000530000005A00000059
:10316C005B0000005C00000000000000000000009C
:10317C000000000000000000000000003300000010
:10318C00790000007900000079000000790000004F
:10319C0079000000790000005E000000570000007C
:1031AC005800000059000000000000000000000062
:1031BC000000000000000000000000000000000003
:1031CC0000000000000000000000000000000000F3
:1031DC0079000000790000005D0000005400000040
:1031EC005500000056000000000000000000000028
:1031FC00FFFFFFFF602C000000000000E803000050
:10320C0000000000010A041201100102000040C07D
:10321C0016830473020102030100180354006500B5
:10322C0065006E00730079006400750069006E0023
:10323C006F0009024300020100C0320904000001C2
:10324C0002020100052400100105240101010424DF
:10325C00020605240600010705820310004009043C
:10326C000100020A000000070503024000000705E8
:10327C008402400000001603550053004200200059
:10328C00530065007200690061006C0004030904BE
:10329C000C03000000000000000000000000000013
:0832AC00000000000000010019
:00000001FF
